:020000040800F2
:10000000C01C0020CD2700085B4E0008A127000877
:10001000A1270008A1270008A12700080000000070
:100020000000000000000000000000007521000832
:10003000A1270008000000002D21000869310008F8
:10004000F1210008F1210008F1210008F121000848
:10005000F1210008F1210008F1210008F121000838
:10006000F1210008F1210008F1210008F121000828
:10007000F1210008F1210008F1210008F121000818
:10008000F1210008F1210008F1210008F121000808
:10009000F1210008F1210008F1210008F1210008F8
:1000A000F1210008F1210008F1210008F1210008E8
:1000B000F1210008F1210008F1210008F1210008D8
:1000C000F1210008F1210008F1210008F1210008C8
:1000D000F1210008F1210008F1210008F1210008B8
:1000E000F1210008F1210008F1210008F1210008A8
:1000F000F1210008F1210008F1210008F121000898
:10010000F1210008F1210008F1210008F121000887
:10011000F1210008F1210008F1210008F121000877
:10012000F1210008F1210008F1210008F121000867
:1001300053B94AB9002908BF00281CBF4FF0FF314E
:100140004FF0FF3000F00CB8ADF1080C6DE904CEB3
:1001500000F008F8DDF804E0DDE9022304B07047A0
:10016000704700BF2DE9F04786468C460846154685
:1001700074461946089E002B40F0C2808542B2FAB0
:1001800082F245D94AB1C2F1200300FA02FC2EFAEC
:1001900003F3954043EA0C0C94404FEA154EBCFB28
:1001A000FEF8A8B20EFB18CC08FB00F9230C43EABA
:1001B0000C43994528D9EB1808F1FF3704D299452B
:1001C00002D9A8F102072B44A3EB0903B3FBFEFC01
:1001D0000EFB1C330CFB00F0A4B244EA0344A04223
:1001E00014D92C190CF1FF3304D2A04202D9ACF17E
:1001F00002032C44241A43EA07401EB10023D440D2
:1002000034607360BDE8F0874746DDE76346F1E799
:1002100092BB0121431B4FEA154EB3FBFEFCAFB26C
:100220000EFB1C330CFB07F8200C40EA03439845F7
:1002300062D9EB180CF1FF3004D2984502D9ACF129
:1002400002002B44A3EB0803B3FBFEFC0EFB1C33A4
:100250000CFB07F7A4B244EA0344A7424ED92C1979
:100260000CF1FF3304D2A74202D9ACF102032C44B3
:10027000E41B43EA0040C0E7C2F12003954020FAA6
:1002800003F12EFA03F34FEA154EB1FBFEFC90404A
:100290000343AFB20EFB1C100CFB07F8190C41EA2C
:1002A0000041884504FA02F422D969180CF1FF30A4
:1002B00004D2884502D9ACF102002944A1EB08011F
:1002C000B1FBFEFC0EFB1C110CFB07F79BB243EAD3
:1002D00001439F420ED9EB180CF1FF3104D29F422B
:1002E00002D9ACF102012B44DB1B41EA004192E749
:1002F0006046E3E76146F7E76046A3E76346B7E792
:10030000834206D916B9002108467BE7C6E900E01A
:10031000F9E7B3FA83F78FB9834201D3724508D85E
:10032000BEEB020460EB030301209C461EB90021D2
:1003300068E73846FAE7C6E9004CF8E7C7F1200C51
:10034000BB4022FA0CF41C434FEA144920FA0CF388
:10035000B3FBF9F8B8402EFA0CF101430EFA07F599
:1003600009FB18301FFA84FE08FB0EFA0B0C43EA57
:1003700000439A4502FA07F240D9E31808F1FF302A
:1003800004D29A4502D9A8F102002344A3EB0A0340
:10039000B3FBF9F809FB183308FB0EFE89B241EAFA
:1003A00003418E452CD9611808F1FF3304D28E45E4
:1003B00002D9A8F10203214443EA0040A0FB0298BD
:1003C000A1EB0E014145CE46434602D306D14D4531
:1003D00004D2B9EB020E68EB04030138002EA6D05C
:1003E000B5EB0E0261EB030101FA0CFC22FA07F3F4
:1003F0004CEA0303F940C6E9003198E74046C5E7F7
:100400004346D9E770B50C4E0C4D0D4C86B000211B
:1004100047F2305003F0A2FEB36828461B689847A5
:1004200002230594049300234FF48651054804AA3F
:1004300001F038FAEBE700BF685A0008045D0008D5
:100440004A5F0008CC5C00082DE9F04F91B00093A2
:1004500002F004030293C2F3C2030133840705468A
:100460000E46DDF868900392059340F0BB81041DB1
:1004700030B1072909D86FF01B0011B0BDE8F08F2B
:1004800001F00706341DC6F10806009B4FF0000876
:100490004FF0040A591E4FF0FF3347460193C346FD
:1004A0005346CDF810800DB1009A226005980028BF
:1004B00000F3E8809848009A824203D3974882422A
:1004C000C0F0E080039AA4EB050E92074FEA9E006D
:1004D00000F103810F2F00F2B180002D00F00581A3
:1004E00007F140020DEB020C019A0CF8200C0CF8FD
:1004F000102C049801300490E7E07A285DD84B284E
:100500000ED8472859D829282DD8252852D054D874
:1005100020287AD02338D0F1000B4BEB000B74E08D
:100520004C382E2849D8DFE800F070484848484841
:100530004848484848484B48484848484848485927
:10054000484B4B595959704B6D487048184B1848D7
:1005500048827F4B48484B487F0000204FF0000BFB
:100560004FF0040A38E001222A38C0B202FA00F043
:1005700010EA0E0F49D110F0625C2FD110EA020B85
:1005800043D06046013C5444B4FBFAF40AFB04F443
:10059000002D61D0A3EB050CA444B4453FF66BAF2E
:1005A000002868D1042B47D159F8043B2360042369
:1005B00004342AE0019A013A01924FF0000B24E042
:1005C00011F8010C6C2834D1002011F8023C83464C
:1005D0006C2BC5D14FF0080A5346D3E709F1070940
:1005E00029F00709073424F00704F9E802AB35B114
:1005F00006982044B0423FF63EAFC4E900AB4FF04E
:10060000000B08344FF0080A534611F8010F002878
:1006100078D0BBF1000F7FF470AF2528F5D14FF0F3
:10062000010B019B013301934FF0040AECE758469C
:1006300094E700208346A5E7082B02D06FF0150051
:100640001BE709F1070929F00709F9E80223C4E9C2
:10065000002308230834D8E768B9042B02D109F134
:100660000409A4E7082BE9D109F1070929F00709D2
:1006700009F10809EDE7059A013A059259F8042BAA
:10068000009210E7039A900720D54FF0010CA4EBDD
:10069000050E4FEA9E00BEF5007FCFD20F2FCDD8BA
:1006A000F5B107F140020DEB020E019AC0B20EF84F
:1006B000200C0EF8102CBCF1000F3FF41AAF60F0C4
:1006C0007F000EF8200C08F101080137C5F108027F
:1006D0004FF6DA7E0434069297E74FF0000CDAE723
:1006E000BCF1000F01D00136EFE702980236002876
:1006F000EBD10098CDE9063104F0B9FBDDE9063114
:100700000644E2E7631BB3F5806F97D245B9A6F1C3
:100710000804E018B1E600BF7C59000888670008AB
:10072000029A9B0828602B709DF81030C2B1EB70C4
:1007300085F80280B8F1000F05D0002208A8C5F1A5
:10074000010C97420ED14FF0000AC5F101030DF1E3
:10075000200901930DF1300B574512D1601B8CE637
:100760006B70E5E710F8013B190608D504EB0C0E99
:10077000B64503F07F033FF67EAE04F8013B01323D
:10078000DFE7B8F1000F03D099F90020002A17DB4A
:10079000029BD3B11AF80B2004F8012B0022019B15
:1007A00098182044B0423FF666AE99F800000099D0
:1007B00004F8010B2046039204F060FB039A1444F2
:1007C0000AF1010A09F10109C6E799F8002055F874
:1007D00022300093029B009845F8223004F047FB3A
:1007E000421CDCE76FF00D0047E600BF2DE9F04F3B
:1007F00095B000AFD7F878B0BB61CBF3C003044627
:100800007A623B61396251B903784678807800EBAF
:10081000830020443B6A9E421AD8031B3B6294F833
:1008200002A0E37856467B61BAF1000F02D01BF0BC
:10083000010F17D17B695BBB7B6A1BB12046BA698C
:10084000396A98473D6A28465437BD46BDE8F08F5F
:10085000451C284604F00BFB3B6A01300133284459
:100860003B62D7E7636894F80080FB617B6A4FEADC
:100870008802FA6004EB8808002B40F00281C14630
:1008800000263D6A0AEB08034B454ED1D04413E0E5
:100890001BF0020FD0D094F800804FEA8803FB6071
:1008A000636804EB8808FB617B6A002B78D13D6AA2
:1008B000BAF1000F4ED156461BF0050F0CBF0223B4
:1008C00001237B627B6908EB430A0BF002033B6266
:1008D000D045B8D018F8021B18F8013C54F8239002
:1008E000AC4B994502D3AC4B994539D33B69002BAE
:1008F00043D0F86903F0E4FE00283ED0E9468AB010
:100900006A46A64B5361FB69C2E906314FF4007396
:100910001384A34B42F8103F00234FF41251A14817
:1009200000F0C0FF023DCD46D2E719F8012B7B62F3
:1009300054F8220004F09BFAFA6F7B6A01303AB156
:10094000D7F8802096423EBFFA6F22F81600013693
:10095000054499E71BF004061CBF7E6AD044ABE750
:100960003B6923B1F86903F0ABFE0028C6D11BF048
:10097000010F05D17B6AED1AAAE73B6A002BA7D0CD
:10098000484604F074FAFB6F43B1D7F880309E42BA
:100990003FBFFA6F431C22F816300136054497E733
:1009A000BAF1000F72D01BF0040672D0D1460026B7
:1009B00007F140005246414604F060FA7B69D0449A
:1009C0005B00BB607B6908EB43037B610BF00203B8
:1009D0007B607B6998455ED123781BF0020FFB6139
:1009E000637818BF002106EB030208BF4FEA5901E4
:1009F0001BF0010FD2B240F09C801BF0040F14BF1B
:100A00004846002094F802B094F803803B6162707D
:100A1000A070E1702046BA69F9687B6A9847051EA4
:100A2000FFF611AFFB6984F8038023703B694946E8
:100A30006370BA697B6A84F802B007F14000984796
:100A4000B0F10008C0F2A2803B6ABA69A3EB0A01C8
:100A5000FB687869C91ABB68C91A7B6A984700287D
:100A6000C0F296804FF0000BA84408EB000507F198
:100A7000300AB3455FD30021BA6908467B6A9847BC
:100A8000E1E64FF0000907F1300093E75646D14602
:100A900094E7B14692E718F8021B3E4A18F8015C49
:100AA00054F82530934202D33B4A93421BD33B690F
:100AB00023B1F86903F004FE00288AD17B68EBB902
:100AC00009F10103DBB209F1280207F128002833FC
:100AD000024409F10209034402F8101C5FFA89F983
:100AE00003F8105C75E73B692BB1F86903F0E8FD8A
:100AF00000287FF46EAF1BF0010F09D006F1280229
:100B000007F12801731C561806F8205CDEB260E776
:100B10001BF0040F3FF45DAF09F1280207F1280133
:100B200009F1010302EB010909F8105C5FFA83F98E
:100B30004FE7002066E71BF80A3054F8239087F847
:100B40002F30FB6FFBB133F81B800121BA697B6A40
:100B500007F12F00984700281ADB0544B8F1000F71
:100B600006D1484604F083F900F101081FFA88F81D
:100B700041464846BA697B6A9847002808DB054425
:100B80000BF1010B75E7D7F87C80DEE745465AE6A6
:100B9000054658E67C59000888670008685F000829
:100BA00004000001AC5C0008014B1860704700BFF6
:100BB0000000002030B5002587B0CDE903010446D0
:100BC000009503A90548059500F00AF8DDE9043011
:100BD0009842B8BF255407B030BD00BF0F4700088A
:100BE0002DE9F04F81468B4617461C46002595B0EF
:100BF000387808B9284657E37B1C2528039306D08C
:100C00005946C8470028C0F24F830135FBE118223E
:100C100000210EA804F03DF97B78252B7DD0002320
:100C200098469E469C461E46781C014610F8012BAD
:100C30002B2A00F0A18000F29880202A00F09F80EB
:100C4000232A00F09F802BB19DF8403043F04003F1
:100C50008DF84030B8F1000F05D09DF8403043F0DA
:100C600020038DF84030BEF1000F05D09DF84030D4
:100C700043F010038DF84030BCF1000F05D09DF813
:100C8000403043F008038DF840302EB19DF84030DD
:100C900043F004038DF840309DF8403003F04400E9
:100CA000442803D16FF386138DF840309DF840300F
:100CB0002A2A43F080038DF840307FD19DF84120EF
:100CC0004B1C42F001028DF841201A782E2A0CBFED
:100CD000012100219DF8412061F341028DF841205E
:100CE00078D15A782A2A6ED000224FF00A0C0133AC
:100CF000194611F8010BA0F13006092E40F295803B
:100D00009DF840101292C1F3400040EAD2700A46AA
:100D100060F341028DF840205CE0BA1C03928DF82C
:100D200043309DF84130DA0740F12E8154F8048BAE
:100D3000B8F1000F07DA9DF84020C8F1000842F032
:100D400004028DF840205E0740F1278154F804AB7F
:100D5000BAF1000F80F226819DF841306FF3410314
:100D60008DF841304FF0FF3A1CE12D2A0DD0302A8A
:100D70007FF469AF012358E74FF0010C55E74FF0BE
:100D8000010E52E74FF001084FE701264DE70346F9
:100D90000EFB0262303A184610F8016BA6F1300CD7
:100DA000BCF1090FF3D999428FD09DF840101192F0
:100DB000D20F62F341018DF8401086E70B46002206
:100DC0004FF00A0EE7E79DF84120023342F004029B
:100DD0008DF841201A786C2A47D02BD8682A31D058
:100DE0006A2A4BD04C2A51D01A4612F8013B782B74
:100DF00003928DF843309DF8412000F2BE806D2BA8
:100E000051D8692B00F2B980572B67D8412B03D0FA
:100E1000453B022B00F2B18004229DF8423062F380
:100E200002038DF84230012373E00CFB02020B46F3
:100E3000303A5DE7742A25D07A2AD5D106219DF86B
:100E400041200CE05A78682A9DF8412006D1012102
:100E500061F3C6028DF841200233C5E7022161F338
:100E6000C6028DF841200133BEE75A786C2A9DF8FE
:100E7000412001D10421EBE70321F0E705219DF892
:100E80004120ECE707219DF84120E8E7BDF840202C
:100E900022F4F04222F0020242F4804242F00202C6
:100EA000ADF84020DFE76E3BD9B201238B4040F222
:100EB00082410B4237D113F0240F51D1D8075CD5B2
:100EC00003219DF8423061F302038DF8423002F0B5
:100ED0007803A3F140014B424B411AE00120A3F1FA
:100EE0005801C9B200FA01F111F4624F94D140F6F1
:100EF000010631421DD111F4043F3ED09DF842302D
:100F000060F3020302F07802402A8DF8423034D0B8
:100F100000239DF84020C2F340010B4363F34102DC
:100F20008DF84020FDE602219DF8423061F3020376
:100F3000E8E702209DF8421002F0780260F3020117
:100F4000402A8DF8421002BF9DF8401041F0010187
:100F50008DF84010632BDBD1131E18BF0123D8E797
:100F600003219DF8423012F0780F61F302038DF8EF
:100F7000423014BF01230023CBE79DF8403043F0FB
:100F800001038DF84030C3E79DF94020002AACBF33
:100F90004FF0FF38DDF84480D5E698077FF5E2AEE4
:100FA000DDF848A00023CDE911339DF842309DF8CB
:100FB000411003F00703012BC1F3C30133D1CB1E52
:100FC000042B04D8DFE803F02146462121002368E2
:100FD00001294FEAE372CDE90E321CD19DF9383078
:100FE000DA17CDE90E3204349DF8403013F00306D1
:100FF00050D03A4659464846039B03F005FC00286A
:10100000C0F252810544039FF2E554F8043BDA171D
:10101000CDE90E32E8E70229E5D11AB243F3C03335
:10102000CDE90E23DFE7022B24D1CB1E042B04D8FD
:10103000DFE803F018101018180001294FF0000223
:1010400054F8043B14D00229CDE90E32CCD19BB226
:101050000E93C9E7073424F00704F4E80223CDE92E
:101060000E23C1E754F8043B0E9300230F93BBE714
:10107000DBB2CDE7042B08D1073424F00704D4E910
:1010800000230834CDE90E23AEE7032BACD154F88E
:10109000043BDDE79DF843007828B4D862281CD8CB
:1010A00025283FF4ADAD5828ADD1DDE90E010DF195
:1010B0003603009310AA08AB03F060FBBAF1000FEF
:1010C000074680F29980002F9DD00DF13603D81B82
:1010D000002E00F0C0800130BDE06338152892D8A2
:1010E00001A252F820F000BFBD110008CF11000886
:1010F0000710000807100008071000080710000874
:10110000CF1100080710000807100008071000089A
:10111000071000085B120008F311000819120008FC
:101120000710000807100008411100080710000808
:10113000F31100080710000807100008F311000859
:10114000BAF1000F0E9F35DB5146384603F0ADFE75
:1011500007EB000A002F3FF456AF00269DF84230FF
:1011600013F01002059200F0928002305B06119A93
:1011700048BF129B104448BFC018B8F1000F04923A
:1011800040F39F809DF84020A8EB0008C2F3800345
:101190005007069300F19580510640F188803EB1DA
:1011A00059463046C84700287EDB069B01351E465F
:1011B00030227DE0384603F05AFEC9E70E9B002638
:1011C00001208DF8203008AF0DF1210AC6E719077C
:1011D0005ABFC3F300135E012B26DDE90E23002B5B
:1011E000BFF663AF524263EB43032D26CDE90E23D6
:1011F0005BE7002659E700269DF840200DF13603F5
:10120000DB1B6FF386129A458DF840207FF65BAFAB
:10121000AAEB0303119356E70E9890B30DF1360332
:101220000093002108AB10AA03F0A8FABDF84230E1
:10123000BAF1000F03F0EF0343F4F04343F010035F
:101240000746ADF84230D6DA00283FF4DCAE00267F
:101250000DF13603181A9A4680E70E9B07293FF6D0
:10126000D2AEDFE801F00C04060C08080C0C1D706F
:10127000C9E61D80C7E6EA17C3E90052C3E61D6050
:10128000C1E62F4F064607F1050A052066E71A0753
:1012900048BF01306AE71046079306925946C8478F
:1012A000DDE90623002804DA15B0BDE8F08F20221E
:1012B00043461946002903F1FF33ECDC45449846C8
:1012C0006D1A2EB159463046C8470028ECDB01356F
:1012D0009DF84230DA0601D41B0705D55946302067
:1012E000C8470028E0DB0135059B33B159469DF81E
:1012F0004300C8470028D7DB0135049E2E4405E093
:1013000059463020C8470028CEDB0135731B002B1F
:10131000F6DC53463A465946484603F075FA00282B
:10132000C2DB0544A844A8EB0503002B7FF76BAE96
:1013300059462020C8470028B6DB0135F3E700BF37
:101340001C600008024B034A00201A60704700BF6F
:101350004000002000127A000020094B82B05A6938
:1013600042F001025A615B69064A03F001030193EE
:10137000019B536843F00203536002B0704700BF03
:1013800000100240002004E02DE9F0470446074623
:101390004FF00109DFF8508014B93846BDE8F087F6
:1013A00094FAA4F5B5FA85F509FA05F32E0108EBD0
:1013B00005156FEA030A24EA03042B7B002BEBD00C
:1013C00058F806301B694BB9464473680422284616
:1013D000196807EA0A0700F051FADDE7284698473E
:1013E0000028D9D1F0E700BFE45C000830B5002246
:1013F00089B00F490F4804F093FA0022002300241B
:10140000CDE906230E230C4DCDE903344FF4407291
:101410002846CDE90144094B0949009402F062FADB
:101420000849284604F070F9204609B030BD00BFD5
:101430004914000848050020D000002029170008A2
:10144000C00C002022600008014802F079BB00BFF8
:10145000C00000202DE9F04780461E480F4603F0EB
:1014600053FC064678B300252846BDE8F087237B69
:1014700073B12368DB680BB12046984723681B696A
:10148000CBB9636804222046196800F0F7F90136E9
:1014900010344C45EBD3B8F1000FE5D0002DE2D06D
:1014A0002846FFF771FF0546002FF7D00021642082
:1014B00002F054FEF2E7204698470028E1D00AFAED
:1014C00006F31D43E3E705464FF0010A024CDFF83F
:1014D0000C90DEE7A0060020E45C0008045D000834
:1014E000014B53F820007047205D000808B5034603
:1014F00008462BB1044A136000F072FC002008BDBE
:101500006FF01500FBE700BF0400002010B5044C8D
:10151000237813B9034802F013FB0123237010BD95
:1015200090080020C000002010B50446084803F0D1
:10153000EBFB5CB1BFF35B8F064B53E8001F013937
:1015400043E80012002AF8D1BFF35B8F10BD00BF43
:10155000980600209C0600200020BFF35B8F014608
:10156000044B53E8000F43E80012002AF9D1BFF3FF
:101570005B8F70479806002070B5FFF7EDFF0546BA
:10158000074C084EB44200D370BD63685B792BB141
:1015900023685B6813B12946204698471034F1E769
:1015A000E45C0008045D000810B5044C04492046C2
:1015B00003F03DFA034B1C6010BD00BF700000201B
:1015C0000C5D00089006002008B50023074A4FF480
:1015D0007A711370064A07481360074A1360FFF7D1
:1015E00085FFBDE80840FFF7DFBF00BF910800207E
:1015F00098060020234D00089C060020014600228A
:101600000023014803F034BA70000020014803F0C1
:10161000CDBA00BF70000020024B0146186803F0ED
:1016200017BB00BF90060020014803F04DBB00BF70
:101630007000002070B5254B1878002844D0FFF7C3
:10164000E5FF054690B1BFF35B8F214B53E8001FC8
:10165000013943E80012002AF8D1BFF35B8F1D4C1B
:101660001D4EB44226D32846FFF7D6FF1B4B1C4C19
:101670001B68002B12DD04F051F90A220023FEF74B
:1016800057FDD4E90032C01A40F2E93361EB0201A0
:10169000984271F1000101D3FFF76EFFD4E90032E7
:1016A00013F57A7342F10002C4E90032BDE87040DC
:1016B000FFF7BABF63685B7923B1236829462046E8
:1016C0001B6898471034CCE770BD00BF900800201D
:1016D0009C060020E45C0008045D000898060020D9
:1016E0004005002070B50D4D297861B90120FFF744
:1016F000B1FE0B4C0B4EB44206D3FFF79BFF002804
:10170000FBD101232B7070BD63685B791BB123682B
:1017100020469B6898471034EDE700BF91080020F1
:10172000E45C0008045D000800212DE9F04708464C
:10173000FFF790FE044648B34FF4FA784FF00009E3
:1017400002F024FD1A4B186030B11A4B1B68092BAC
:1017500002DD194802F0F4F90025184FDFF858A00F
:1017600044B12046FFF710FE044618B94FF0FF3889
:101770004FF0FF39FFF75EFF064628B9B5B942467C
:101780004B46504602F000FA3546E9E74FF0FF3885
:101790004FF0FF39D4E72B689B691BB10022284624
:1017A000114698471035BD42F5D3E8E7044DFAE7F6
:1017B000940600209C060020C0000020045D000864
:1017C000E45C000813B5184803F09EFA174B1B7829
:1017D0007BB14FF01003EFF3118483F31288BFF352
:1017E0006F8FFFF727FF84F31188BFF36F8F02B06D
:1017F00010BD0F4B1B68002BF9D050B900220023FD
:101800000C48CDE9002342F21072002302F0F0FEF2
:10181000EDE70928EBD1074804F08EF8064802B03E
:10182000BDE8104002F08CB99C0600209108002011
:101830009406002048050020C000002010B5064B8B
:1018400004461B6898472146A060044803F08EF9BF
:10185000BDE81040FFF7B6BF040000207000002074
:10186000044A054B9B1AB1EBD30F34BF52F8310039
:1018700000207047AC5C0008E45C0008084B10B422
:10188000C31A44681B110133237143689A71012202
:101890004368196043685A7110BCFFF737BE00BF38
:1018A000E45C00082DE9F04F8FB0C1F34A2804AF83
:1018B0000D469146B8607B600C0DB8F1000F63D007
:1018C00000264FF0040B4FF00A0A07F11403C7F883
:1018D0000C80C7E907667E620193CDF808B0CDF8A9
:1018E00000A007F11C0332464846F968FEF77EFF68
:1018F000B0F5006F03461CD36C468AB0D9F80410CB
:1019000004AB26481A46C3E9050140F2FF71D961CC
:101910004FF400711984224B42F8103F4FF41251DA
:1019200033462048FFF7BEFFA5462C37BD46BDE82D
:10193000F08FC0F30A0804F11700184420F00700E4
:1019400080083B60FFF75AFE68F35325044690B1C8
:101950003B6800F11001C7E9083607F11403F9618B
:10196000CDE900A3CDF808B048460F4AF96807F161
:101970001C03FEF73BFF68F353252A4620467B688D
:10198000B96803F0FFF9D0E704F1170020F0070071
:101990008008FFF733FE0446EDE700BF376000081C
:1019A00004000001B45C0008594D00082DE9F04F17
:1019B00087B00446DDE9105ADDE912690F46934607
:1019C0009846A6B31021334652460020CDF8009029
:1019D000CDF81490FEF738FD014605F117000844D4
:1019E000144B04F007040BF0070BE40020F0070091
:1019F00003EA412344EA8B1480081C430391FFF758
:101A0000FDFD44EA0554054640B13EB13346524619
:101A10000399CDF800901030FEF716FD434622469C
:101A20003946284607B0BDE8F04F03F0ABB9314660
:101A3000D3E700BF00FE0F000EB403B503AB53F8AD
:101A4000042B01460448019303F0C2F902B05DF88B
:101A500004EB03B0704700BFF74D0008CA0605D479
:101A60008B064CBF02490349FFF7E6BF704700BF32
:101A700077600008766000082DE9F04F89B09B463A
:101A8000DDE915769DF8483004460493DDE91393AB
:101A90000593049B0D460692002B00F0878006F00C
:101AA0000803079303F056F906F0020A02460028DD
:101AB0004BD020468549FFF7BFFF8046BAF1000FA3
:101AC00008D016F0440F42D12A4620468049FFF73D
:101AD000B3FF804406F001035BB17E4B049A2046BD
:101AE00053F822207C4B7D49002A08BF1A46FFF795
:101AF000A3FF06F00803002B55D0794B049A20462B
:101B000053F822207749FFF797FF0546069B2BB134
:101B10001A4620467449FFF78FFF0544BBF1000FBA
:101B200005D05A4620467149FFF786FF05444544D3
:101B3000B9F1000F49D1002F4FD1F30700F1C08058
:101B400031462046FFF78AFFB4E08046B6E7684B8F
:101B500018680028BDD0674B4FF47A7E1B684FF49D
:101B60006162B5FBF3F5B5FBF0F300FB13550EFB1B
:101B700005F5B3FBF2FAB5FBF0FC3C2102FB1A328F
:101B800000FB1C55B2FBF1F30EFB05F5B5FBF0F5C0
:101B900001FB132220460092CDE901C55246564969
:101BA000FFF74AFF95E706F00805AFE7BBF1010F25
:101BB00006D1B9F1000F64D1002F7BD000250CE0D5
:101BC000B9F1000FF8D04D485CE04D484B46224635
:101BD0004C4902F044FD002F68D0DFF82C91DFF86B
:101BE0002CA1102F31462046B8464FF0000B28BFDD
:101BF0004FF01008FFF732FF5D4545DC059B51466D
:101C000020461A78FFF718FF4FF0010B1BF0070F63
:101C100003D149462046FFF70FFFD8453BD9059B26
:101C20005146204613F80B20FFF706FF0BF1010B7E
:101C3000BBF1100FEAD14FF0000B20463449FFF7FB
:101C4000FBFE5A46059B20469A5CA2F120015F29C3
:101C500028BF2E222F49FFF7EFFE0BF1010BBBF13E
:101C6000100F1DD01BF0070F03D149462046FFF788
:101C7000E3FED8455A46E5D849462046FFF7DCFE44
:101C8000EBE71F48049DA1E749462046FFF7D4FE35
:101C90000BF1010BB0E720461F49FFF7CDFEC5E76A
:101CA000059BB7EB0807434405939AD1049B002B8F
:101CB0007FF443AF204609B0BDE8F04F03F08FB882
:101CC0002046054A0549FFF7B7FE39E77E60000860
:101CD00082600008305D000879600008A760000895
:101CE000445D0008AA600008B0600008B460000805
:101CF000A8060020A40600208B6000082D4E0008D6
:101D0000F74D0008D14D0008C1600008B960000817
:101D1000C3600008C5600008BF6000082DE9F041FD
:101D20000F884B6805460C4690468E6886B0C7F310
:101D300082175BB1134A9B1A43F3CF0100291FDBC3
:101D40002078C0F3C200FFF78BFD0346214651F80F
:101D5000102B6088C2F34A22002A01EB020408BF5C
:101D60000021C0F30B10CDE90308CDE901140022D6
:101D7000314628460097FFF77FFE06B0BDE8F081A8
:101D80000023E3E7AC5C000842F20F7373B58B42AB
:101D900028BF0B4605680446052168460D4A02F037
:101DA000D6FC0646636828460B225B680A4903F0A6
:101DB00002F863683246694628465B6802F0FBFF1A
:101DC00063681B2228465B68044902F0F4FF02B0F6
:101DD00070BD00BFDA660008E4600008C860000853
:101DE00000210123064A904206D8064A01B9012380
:101DF0001360054B18607047012140085B00F2E753
:101E000040420F00A4060020A80600200122014B3A
:101E10001A70704792080020014B0020196070472B
:101E2000C00600200122024B02481A7002F0D7BF00
:101E300093080020745D00080148FFF7A5BF00BFAC
:101E4000745D000810B5064B0C461868FFF748FB98
:101E50002146BDE8104003460F220248184700BF44
:101E6000C0060020745D000810B9074B1870704759
:101E7000064B1B781BB141F2883001F067BB322062
:101E8000002102F06BB900BF9208002093080020E7
:101E90002DE9F84380460E460424DFF870901C4F6D
:101EA00099F8005095B901F041FB28463246414669
:101EB00001F0C2FA054601F043FBE5B101233B7096
:101EC00099F8003073B93046BDE8F8833246414690
:101ED000002001F0B1FA0546EFE72046651EFFF746
:101EE000C3FF2C46002001F017FB0028EBD03B7805
:101EF000002BF2D1E7E73B78002BE4D0013C2046F1
:101F0000FFF7B2FF3B78002BCAD1DCE79308002033
:101F100092080020014B002019607047D80600206D
:101F20000122024B02481A7002F059BFA508002096
:101F3000A05D00080148FFF727BF00BFA05D0008B3
:101F400010B5064B0C461868FFF7CAFA2146BDE8E3
:101F5000104003460F220248184700BFD806002051
:101F6000A05D0008F8B50D460446064F4618B44279
:101F700001D12846F8BD14F8011BBB6801485B6815
:101F80009847F4E7A45A0008014910220A607047F4
:101F900010ED00E072B6404080F31188BFF36F8F00
:101FA000BFF34F8F30BF62B6BFF36F8F704700BF74
:101FB0002DE9F04781460C4600AF00294BD006C9F9
:101FC0006E468AB0A3686D464FF0050AA8462548BC
:101FD000C5E90723C5E9050148F810AF00234246CB
:101FE0004FF421512048FFF75DFCD4E90312B546B8
:101FF0006369AD461D48C5E90723C5E90501C5F874
:1020000010A0002342464FF421511748FFF74AFC25
:10201000B54688B0E3696D464FF0030AA846144AF6
:10202000C5E9052348F810AF002342464FF4C251DA
:102030000D48FFF737FCB546A369AD460D4AC5F814
:1020400010A0C5E90523002342464FF4C2510648BB
:10205000FFF728FCB5462146484601F0A7FABD46E1
:10206000BDE8F0873A610008D45C000869610008A7
:1020700098610008A761000840B2002807DB01232F
:102080004109034A00F01F00834042F821307047A5
:1020900000E100E040B2002801F10101ACBF00F115
:1020A0006040064B4FEA0111C9B2ABBF00F5614079
:1020B00000F00F0080F800131954704714ED00E091
:1020C00030BFFFF7FDBF00BF08B5094B094A23F039
:1020D000604323F07F039360BFF34F8FBFF36F8F95
:1020E00001F020FB02F0B8F800F064FB01F068FB9F
:1020F0000000000800ED00E0094A0A4993680968F9
:102100009866D96608494B6843F080534B600023BA
:1021100083F31188BFF36F8F9368D86E704700BF49
:1021200060080020145F000800ED00E00F498A6895
:102130004FF030001044EFF3098C80E8F01F1020BE
:1021400080F31288BFF36F8F094F4FF000664A6922
:102150008A603E60906E0023936680F3118802F1DE
:10216000300090E8F01F8CF3098870476008002069
:1021700004ED00E01EF0040F0CBFEFF30880EFF356
:102180000980816911F8021C0229FFD001B502F013
:102190005CFE01BD42F8203C009B0B4942F81C3C10
:1021A000019B21F0010142F8183C029B42F8081CF7
:1021B00042F8143C4FF0807342F8043C0023203A6C
:1021C00002658366704700BF69470008074B986047
:1021D000104681F30988002163B681F31188BFF3AB
:1021E0006F8F0022002302F0BFFA00BF60080020BA
:1021F00001B5EFF30580A0F110004FEAC0000449DB
:10220000014409C99847BDE8014002490847000058
:10221000CC5A000819220008044B99685869884272
:1022200003D003494FF080520A60704760080020D5
:1022300004ED00E02DE9F04186B006460D4600AF02
:102240000224394B4FF482517B6138483C6107F1DD
:10225000100202F009FE364B9B6AD90661D5354B58
:1022600032484FF48251C7E9044307F1100202F0EB
:10227000FBFD11202E4B9B6A1A070BD52E4B2B48CA
:102280007B6102234FF482513B6107F1100202F09F
:10229000EBFD1220264CA36A9B0723D5E846274B6B
:1022A00022487B61022307F110023B614FF4825107
:1022B00002F0DAFD636BA26A100612D588B06A4696
:1022C0001F491A48C2E9051303234FF4C25142F8CB
:1022D000103F02F0C9FDC5461EB1A36A23F080037A
:1022E000A3621320124B9B6AD9070BD5154B0F48DD
:1022F0007B6102234FF482513B6107F1100202F02F
:10230000B3FD14200A4B18379A6AD20658BF9A6A4E
:102310009A6A42F0FF029A6200232B70BD46BDE824
:10232000F0811020A6E700BFD5610008D45C00084A
:1023300000ED00E0EB6100081E6200083162000859
:10234000496200085F6200082DE9F04186B0064648
:102350000D4600AF02243F4B4FF482517B613E4853
:102360003C6107F1100202F07FFD3C4B9B6AD904EF
:102370006DD53B4B38484FF48251C7E9044307F110
:10238000100202F071FD1720344B9B6A1A050BD521
:10239000344B31487B6102234FF482513B6107F19A
:1023A000100202F061FD18202C4CA36A9B0523D576
:1023B000E8462D4B4FF482517B61022307F1100256
:1023C0003B61254802F050FDA36BA26A110412D5AF
:1023D00088B06A4625492048C2E9051303234FF413
:1023E000C25142F8103F02F03FFDC5461EB1A36A3C
:1023F00023F40043A3621920184B9B6A5A050BD59E
:102400001B4B15487B6102234FF482513B6107F15E
:10241000100202F029FD1A20104B9B6ADB050BD538
:10242000144B0D487B6102234FF482513B6107F14D
:10243000100202F019FD1B20084A1837936A43F472
:102440007F43936200232B70BD46BDE8F0811620C8
:102450009AE700BF7E620008D45C000800ED00E04F
:10246000946200081E620008A5620008BE620008AF
:10247000D3620008EE62000810B586B00224364B25
:1024800004AA4FF4825135480593049402F0ECFC01
:10249000334B9B6A9A015DD5324B30484FF48251E1
:1024A00004AACDE9044302F0DFFC1E202C4B9B6AFA
:1024B000DB010AD52C4B2948059302234FF48251A6
:1024C00004AA049302F0D0FC1F20254B9B6A1C0336
:1024D0000AD5264B2148059302234FF4825104AAC2
:1024E000049302F0C1FC21201D4B9B6A59030AD5BD
:1024F0001F4B1A48059302234FF4825104AA0493F8
:1025000002F0B2FC2220164B9B6A9A030AD5194BA3
:102510001248059302234FF4825104AA049302F057
:10252000A3FC23200E4B9B6ADB030AD5124B0B48FE
:10253000059302234FF4825104AA049302F094FC01
:102540002420074A936A6FEA03436FEA13439362B6
:1025500006B010BD1D20A9E706630008D45C000882
:1025600000ED00E01E630008316300084B630008C3
:10257000696300088E630008A86300082DE9F04332
:102580008BB0764B0546D3F80480002600AFC8F325
:10259000080486F31188BFF36F8F02F07F43B3F115
:1025A0007F4F0ED102F00C03082B19D16C4B4FF466
:1025B0008251FB6102236B48BB6107F1180202F0F4
:1025C00053FC002635460023FB71E31E092B00F265
:1025D000A580DFE803F00A989B94A3A3A3A3A39E7E
:1025E00010074CBF0D460126EDE7E9464FF0020803
:1025F0005D4B07F11802FB614FF482515948C7F84F
:10260000188002F031FC0023544CFB71E36A9A07F6
:102610000BD5564BC7E906834FF48251514807F159
:10262000180202F021FC002440E0E36A002B01DAEA
:102630004F4BEFE7E36A5B00F5D54E4B07F118020D
:10264000C7E906834FF48251464802F00DFC6369E6
:10265000AA6943F480736361BFF34F8FBFF36F8F39
:10266000636932F8022C23F480736361BFF34F8FE8
:10267000BFF36F8F4DF602739A4207D0A36ADBB2A5
:1026800083B30120F91DFFF7D5FD3AE088B02B6830
:102690006A4639493348C2E9051303234FF4C2514E
:1026A00042F8103F02F0E0FBCD462C68FB79ABB955
:1026B0002022294607F1080002F0E0FB7B6A002E89
:1026C00047D0C3F3080222B96FEA53236FEA4323CA
:1026D0007B62204607F10801FFF76AFC2C37BD46F4
:1026E000BDE8F083A36A13F47F4F04D00120F91DE5
:1026F000FFF72AFE05E0A36AB3F5803F93D3FFF707
:10270000BBFE0446D2E70020F91DBCE70020F91DFE
:10271000EEE71A4BFB610223BB617DE7184A18F410
:10272000F87FE8468AB0174B18BF13466A46164929
:10273000103CC2E905134FF400731384134BD461AA
:102740004FF41151074842F8103F02F08DFBC54687
:1027500069E723F4FF7323F00103B9E700ED00E01C
:1027600001640008D45C00082C640008436400087D
:10277000646400087264000891640008AD64000895
:10278000E8630008D3630008D16400080400000176
:10279000024A536943F010035361704700ED00E0B3
:1027A000EFF30880EFF3098101B57246FFF7E6FE0B
:1027B00001BD00BF002310210348C21801333C2B88
:1027C00082F80013F9D1704700E100E0102080F397
:1027D000118808484FF40061401880F30988EFF32E
:1027E00014800221084380F31488BFF36F8FFFF732
:1027F0006BFC0000C00F0020084B9B6883420BD18C
:10280000EFF3058343B1064B5A6842F080525A6099
:102810005A6A22F400425A6201F0BEBC60080020ED
:1028200000ED00E0014B1860704700BF0800002079
:102830002DE9F041054600244FF001080D4E0E4FE2
:102840002B78E2B298181F280DDC726908FA00F3A1
:1028500033EA020207D1736157F830301BB107EB3E
:10286000C002516898476A780134E3B29A42E7D2CD
:10287000BDE8F08100040140DC060020044B184450
:1028800000230133994200F8012BFADC704700BFA6
:102890004C00002010B4064B02461856012305498F
:1028A00093400C6823430B6010BCFFF7E5BB00BFEF
:1028B0004C000020000401401F2806DC01220349CF
:1028C00082400B6823EA02030B607047000401405A
:1028D00003292AD8DFE801F0020E141F0122134B4E
:1028E0008240996821EA02019960D96821EA0202CE
:1028F000DA60704701220D4B824099681143F3E77B
:1029000001220A4B8240D9681143D960996821EAB3
:1029100002029A607047012303FA00F0034B9A68A1
:1029200002439A60DA681043D8607047000401409F
:1029300030B50A4B53F830408C4204D103EBC0054C
:102940006D68954205D034B943F8301003EBC003ED
:102950005A60002030BD6FF00F00FBE7DC0600205E
:102960000022034B43F8302003EBC0035A6070474A
:10297000DC0600200E4B18680B68052B0BD883B1C2
:10298000023B032B03D8DFE803F01102020300200F
:10299000106000207047182BFAD01C2B04D0142B89
:1029A000F6D06FF0850070474008F1E70148EFE787
:1029B0004000002000127A0070B502F02EFB00F0FB
:1029C000ABFC324C324A6368324EC3F30313D35C20
:1029D00020FA03F5B54202D82F4800F0D7FC23684F
:1029E00023F480232360236843F480332360236827
:1029F0009803FCD5636803F00C03082B15D12368FA
:102A0000990706D4236843F00103236023689A07DB
:102A1000FCD5636823F003036360636813F00C0F55
:102A2000FBD1636823F0F0036360236823F08073B5
:102A3000236000F035F8236843F080732360236837
:102A40009B01FCD5636823F0F0036360636823F0A7
:102A5000030343F002036360636803F00C03082B75
:102A6000FAD1B54202D90C4800F090FC0B4B0A4A4F
:102A700000201A60636823F4E06343F480636360BA
:102A8000636823F46053636070BD00BF00100240B0
:102A900049660008FFA14A0400A24A044000002041
:102AA000054A536823F47C1343F4E81353605368D6
:102AB00023F48003536070470010024010B5044CAB
:102AC0002046FEF771F82046FFF7ACFE002010BD4F
:102AD000D52A0008F7B504460325124E8DF80700E5
:102AE00000F024FD012200200DF1070100F0E8FCB8
:102AF000074600F025FD27B101233370204603B0BF
:102B0000F0BD3378002BF9D0013D08D002F0F6FD7E
:102B10000028E5D10021142001F020FBE0E735700A
:102B2000ECE700BFA608002008B5074802F0CEFD7C
:102B300038B10648FFF776FE0448FEF735F8002066
:102B400008BD6FF01200FBE7A45A0008512B0008E3
:102B50000A2838B50446074D04D1AB680D21284634
:102B60005B689847AB6803485B68E1B298472046CA
:102B700038BD00BFA45A000838B503690446586040
:102B8000084D284602F0A2FD40B16168AB682846B6
:102B90001B680C31984700EAE07038BD6FF01200F6
:102BA000FBE700BF045A0008F8B51746B7F5001F49
:102BB0000C461D464668026923D10F2301F003022B
:102BC00004329200934043EA9103DAB22C49023274
:102BD00051F82220190C02EA134391FAA1F2B2FA39
:102BE00082F2D340B2689A4209D12046FFF764FED0
:102BF0002046FFF7B5FE00212046FFF769FE0020C2
:102C0000F8BDB7F5800F35D020461E49FFF790FE7E
:102C100098BB0F2204F0030304339B009A4042EA5E
:102C20009402D3B29B0003F1804303F58033B16873
:102C30009E68100C26EA124690FAA0F2B2FA82F2CE
:102C400001FA02F23243B5F1806F9A600ED0B5F10D
:102C5000C06F0DD005F17E435942594149002046CD
:102C6000FFF736FE2046FFF715FEC8E70121F6E71D
:102C70000321F4E76FF08500C2E76FF00F00BFE7B4
:102C800000000140335100082DE9F3470368044672
:102C9000C3F38F25C3F38923FBB101228A4223D3D7
:102CA000334A15F0010F906940F00100906192697C
:102CB0004FEA132002F001020192019A2D4AC3F358
:102CC000440300FA03F009BF5368D369034343F098
:102CD000E06316BF03435360D361274F04EBC10683
:102CE000A6420ED1002007E054F83200C0F389203C
:102CF000984204D06FF0150002B0BDE8F0870132B1
:102D0000CCE7D4E9002512F003090FD145F04105C5
:102D1000C2F3870AC2F383120A2AEBD857F822803B
:102D2000B8F1000F13D16FF01200E5E7B9F1020F0F
:102D3000EED0B9F1010F07D115F4C07F0CBF45F0FB
:102D4000020545F00405E3E745F00105E0E74046EC
:102D500002F0BCFC0028E6D04B462A4640460AF06A
:102D60000F0102F08BFA002804F10804B8DAC3E777
:102D70000010024000000140385E000842681168FF
:102D80004B6943F001034B6113680E498B420FD02E
:102D9000A1F574418B420BD001F580618B4207D0C5
:102DA00001F580618B4203D001F580618B4203D134
:102DB000196941F0400119611268D36843F48073C6
:102DC000D360704700380140426811684B6923F0B6
:102DD00001034B6113680E498B420FD0A1F574417A
:102DE0008B420BD001F580618B4207D001F58061E9
:102DF0008B4203D001F580618B4203D1196921F028
:102E0000400119611268D36823F48073D36070475E
:102E1000003801407FB5074B05930223049300233C
:102E20004FF48251044804AAFEF73CFD07B05DF858
:102E300004FB00BF74650008DC5C00082DE9F0416C
:102E40000B790C46012B4568066926D09A1E57421D
:102E50005741BF02627994F80680022A96BF4C4916
:102E60004FF4005C31F812C0B8F1040F12D094F89E
:102E700007E0ABB9BEF1010F22F0020226D04AB141
:102E8000B8F1020F06D91946BEF1000F32D0BEF1DB
:102E9000010F22D06FF0850077E04FF4C067D9E7CB
:102EA000033BBEF1010FDBB20CD1012BF2D94FF481
:102EB000407112F0FD0FEDD0B8F1020FEAD94FF4D6
:102EC0008053E1E7012BE5D90021F2E7002AE1D0A8
:102ED000B8F1020FDED94FF440712A68DFF8B4E090
:102EE000724507D0AEF5744E724503D00EF5806E74
:102EF0007245CFD1D5F800E0DEF80C2022F4005264
:102F0000CEF80C204268D2F800E0DEF80C2002F483
:102F1000C06297421FBFDEF80C2022F4C0623A4321
:102F2000CEF80C20426817683A6902F44052944582
:102F30001FBF3A6922F4405242EA0C023A614268E9
:102F40001768FA6802F480529A421FBFFA6822F4A6
:102F500080521343FB6043681A68536903F440735B
:102F600099421FBF536923F440730B435361216897
:102F70003368994203D002F024FB236833600020B9
:102F80002A68D36843F40053D360BDE8F08100BFE2
:102F9000445F0008003801402DE9F04186B0054645
:102FA000446806694E4800AF706002F08FFB03462C
:102FB00068B94C4A7A6102223A614B484FF4825117
:102FC00007F11002FEF76EFC6FF0120013E070685C
:102FD000616883681B689847804680B1434B7B617A
:102FE00002233B61404800234FF4825107F1100255
:102FF000FEF758FC40461837BD46BDE8F081014653
:103000003A46E06902F04FF90028F4DB3B6842469B
:1030100019791868FFF738FE0028ECDB2268D368BE
:1030200023F40053D360B06802F050FB034608B9A4
:103030002F4ABFE7D6E902018368DB6803B19847EE
:103040002268D36843F00C03D3602369022B3DD080
:10305000012B40D04BBB0023184621680343CA68AC
:1030600022F4B0521343CB600B6923F440530B613D
:10307000237B2BB16B681A68536943F44073536127
:103080002846316802F09DFA237D23B122685369F6
:1030900043F00803536122682846D36843F4005381
:1030A000D360236A98470020A5E7E84688B06A46BF
:1030B0001049C2E90513032342F8103F00234FF4DF
:1030C000C4510948FEF7EEFBC546C4E74FF48053F0
:1030D0004FF48060C1E74FF480534FF4C060BCE709
:1030E000045A0008A2650008DC5C0008C1650008FD
:1030F000E1650008FC6500084FF0E02310B59A690F
:103100001969986911F4803F084B094901D182423D
:1031100006D21A680C6822441A604FF0E022126945
:103120001B680A681344181A10BD00BFAC070020C2
:10313000B00700201022094B002083F8232041F61D
:103140001F42074B1A60074B18604FF0E0235A618B
:1031500098611A6942F007021A61704700ED00E0B9
:10316000B0070020AC07002010B5FFF7C5FF1049DD
:10317000104B0868D3E90042001942F10002C3E98C
:10318000000200230B604FF4E1530B4AD2E90041E7
:10319000001BB0FBF3F043431B1941F10001C2E9EE
:1031A000003101F02FF9BDE81040FFF735B800BF3E
:1031B000AC07002088050020800500202DE9F041A3
:1031C000364F00295ED0421C0AD14FF0E02213692D
:1031D00023F0010313614FF07F433B60BDE8F081B2
:1031E0003E68012854DD40F61918404501DC00F125
:1031F000FF384FF01003EFF3118583F31288BFF30C
:103200006F8FFFF779FF4FF0E02325499A69D1E9E5
:10321000004300194FF0000443F10003C1E900032B
:10322000204B1C60204B1B68C41A34D44FF4E15C63
:103230000CFB084404F5E0541F34B4FBFCF4181AEA
:103240000CFB0400B0F5806F25D9184B984228BFBD
:1032500018464FF0E023386001389C69586100201F
:10326000A2429861A2EB040338BF9B19D1E9000286
:103270001B1842F10002C1E9003285F31188BFF347
:103280006F8FABE7431C3E68ABD140F61910AEE739
:103290004FF00008ADE74FF48060DAE7B007002098
:1032A00088050020AC0700208005002020DFFF00FB
:1032B00038B54FF01003EFF3118583F31288BFF395
:1032C0006F8F084B1C68084B1B68E41AFFF714FF4C
:1032D00085F31188BFF36F8F4FF4E1532044B0FBA7
:1032E000F3F038BD880500208005002038B54FF088
:1032F0001003EFF3118583F31288BFF36F8F054B33
:103300001C68FFF7F9FE85F31188BFF36F8F204427
:1033100038BD00BF8805002030B5184B87B002AC1F
:1033200003F11005224618685968083303C2AB42FE
:103330001446F7D140F201231149ADF804304B682F
:1033400003F00C02082A17D1C3F3834218326A44EF
:10335000DB0312F8100C0CD54B680A4AC3F3404348
:10336000504318336B4413F8143CB0FBF3F007B030
:1033700030BD054B5843FAE70248F8E759660008A4
:103380000010024000127A0000093D00D8B10F4B36
:10339000984216D80E4B984294BF002001200D4A47
:1033A000136823F0070303431360136803F0070354
:1033B00098421CBF136803F00703C01A18BF01200E
:1033C00070470220EBE70120704700BF006CDC0271
:1033D00000366E010020024010B5124CA8220021D8
:1033E000204601F056FD03230F4A236163610F4B12
:1033F000A261E3614FF4806323620023A3626362EE
:10340000E36222660A4A62661022A266094A2367BC
:10341000E366636712F8011DE1540133102BF9D103
:1034200010BD00BFB40700206A660008B70800207E
:10343000A7080020836600082DE9F84F1826DFF85A
:103440007C80074606FB008E00FB0666DEF8244003
:10345000DEF828C046447368A4458946154603EB48
:10346000040022D8DEF820B0ABEB040A0AF1FF33E7
:103470009A4203D801F002FD2C440FE063449A42C3
:1034800019D852462C4401F0F9FCB4EB0B0405D0DA
:103490002246706809EB0A0101F0F0FC18230120B4
:1034A00003FB07835C62BDE8F88F0CF1FF3CACEBDB
:1034B000040C9445DED20020F5E700BFB4070020DD
:1034C000F8B5182700FB0775124B0E461D4407FB85
:1034D0000033DB6A1446012B0AD0022B14D023B927
:1034E000284602F094F8844208D900242046F8BD0A
:1034F000284602F08CF8844228BF04462246314612
:10350000284602F08DF8F1E72846BDE8F84002F0C1
:10351000A2B800BFB40700201822034B02FB0033FF
:103520009A6A586A801A7047B40700204FF0FF3239
:103530004FF0FF33014800F04DBA00BFAC0000204F
:10354000014800F0C1BA00BFAC00002038B5044605
:1035500078B1FFF7CBFE054606480023A4FB000127
:10356000054AFCF7E5FD0446FFF7C0FE431BA342F6
:10357000FAD338BD00A24A0440420F0010B50446F9
:1035800086B0FEF7AFF8074B059302230493064875
:1035900000234FF4825104AAFEF784F9204602F07A
:1035A000A0F800BF90660008D45C00082DE9F04741
:1035B00086B005460E4600AF4FF01003EFF31188BA
:1035C00083F31288BFF36F8F00F0E0FD042D98BFE6
:1035D0002C4BE9468AB004466A4694BF53F825301E
:1035E000294BD36140F201334FF0000A93842749FD
:1035F000274BC2E90515C2F820A042F8103F4FF44E
:10360000315153462348FEF74DF9CD467EB1F3695B
:10361000C3F308035BB1204B7B6102233B614FF492
:10362000825153461B4807F11002FEF73BF92CB1BB
:10363000204602F06CF808B1037803B91748E94650
:103640008AB06A46164BD061C2E9053440F20133B4
:103650001384144B42F8103F00234FF411510D48CE
:10366000FEF720F93146CD462846FFF787FF88F35D
:103670001188BFF36F8F2046FFF7BEF81837BD469D
:10368000BDE8F087185F00089F660008B56600086F
:1036900005000001D45C0008DD660008AD66000886
:1036A000FE66000804000001104B70B553F820407E
:1036B000013053F82060A64200D870BDD4E900352F
:1036C00095B153B12846984738B10028B8BF404259
:1036D000FF28A8BFFF20EB681870EA68537843F012
:1036E000010353700834E6E79847FBE72C5F0008B6
:1036F000012208B5094B03201A70FFF7D5FF00F02F
:10370000A7FF0420FFF7D0FF00F018F9FCF77AFEBE
:10371000034A137B23F00103137308BDB70C002089
:103720000006002008B50348034A0021121A01F0E0
:10373000E1FF08BDD0000020BC0C0020702370B554
:10374000194E012203FB0066002386B0CDE9042355
:103750000F220193CDE9023214230446134D14497C
:1037600003FB005501EB0021124B4FF480723046F1
:10377000009500F08DF8737B2C7423F004037373B1
:103780000D4B013403EBC4236B60EE60BFF35B8F22
:103790000A4B53E8001F013143E80012002AF8D118
:1037A000BFF35B8F06B070BD90050020600800205D
:1037B000C017002013570008C00F00205C0800202D
:1037C00080B50020A2B0FFF76FFF2A4B83F3088873
:1037D000294C00256369294E43F400736361F0238B
:1037E00084F82230E57725766576A57684F8205032
:1037F000636A234F43F4E0236362FEF7C9FFFEF7D9
:10380000C3FB4FF0FF33A362E362FDF7DDFE40F23E
:103810000113ADF8243006ABB3601F9501F055FFDE
:103820000120FFF741FF0220164CFFF73DFF00F09B
:103830000BFC154B74610593012314494FF480620E
:10384000CDE9035320463B46CDE90155009500F0F4
:103850001FF80646627B204622F00402627301F0E4
:10386000B2FF2846FFF76AFF3A4631462046FEF788
:10387000ADFC00BFC017002000ED00E06008002094
:10388000F136000800060020635F0008C018002021
:103890007FB50C9E00F1580506730426C0E9165545
:1038A00000250446467307320B9E22F007028673FA
:1038B0008E180A9AC0E906558560C5730292099A66
:1038C0000192089A00923246FEF764FC044B65654B
:1038D0009B6803B15B6E3046636604B070BD00BF89
:1038E00060080020F0B5002587B00595109DDDE942
:1038F000127604950F9D044603950E9D02950D9D2D
:1039000001950C9D0095FFF7C3FFB6F1FF3F08BF7F
:10391000B7F1FF3F05D056EA070305D1204600F076
:1039200013FB204607B0F0BD3A463346024904F186
:10393000180000F0F1FCF4E74F580008F0B5224CF5
:10394000224D87B02646AE4204F12C040BD300F082
:103950004BFB0A261C4C1E4FAC4220D307B0BDE8DF
:10396000F04000F055BB54F8043C059354F80C3C6F
:10397000049354F8103C039354F8143C029354F805
:10398000183C019354F81C3C009354E9092354E972
:103990000B01FFF77DFF54F82C3C5E65D2E7626AAD
:1039A000531C09D022EAE27282FB062352EA030189
:1039B000206803D100F0C8FA2C34CDE7394618301E
:1039C00000F0AAFCF8E700BFAC5C0008AC5C0008A3
:1039D0004F5800082DE9F341044617461E464FF0A4
:1039E0001003EFF3118883F31288BFF36F8FC3685E
:1039F000334A7BB180689168884219D057EA060340
:103A000018D188F31188BFF36F8F6FF00F0002B0E9
:103A1000BDE8F081916891F90E100133E36093687D
:103A20002161A36088F31188BFF36F8F0020EEE758
:103A30002169F2E791F90E1090F90E306FF07E02D5
:103A40009942A8BF19469142B8BF11468B422EDD5C
:103A500001F06BFE054622464146CDE90076194845
:103A600000F0FCF90028E1D04FF01003EFF31186CD
:103A700083F31288BFF36F8FA068D0B123682169E8
:103A80009C420AD04BB193F90E309942A8BF194617
:103A90006FF07E039942B8BF194601F046FE40B16F
:103AA0003146084800F03EFA6FF00A00AFE7002503
:103AB000D1E7002DF4D186F31188BFF36F8FF3E7C0
:103AC00060080020B80C002038B5836804466BB34A
:103AD000194A926893422CD1C368012B03D9013B48
:103AE000C360002038BD4FF01003EFF3118583F35E
:103AF0001288BFF36F8F0169806801F016FE2046BF
:103B000001F0C0FEA06058B190F90E2022610022A1
:103B1000C26601F058FE2946084800F003FAE0E7C3
:103B2000E06085F31188BFF36F8FDAE76FF015005F
:103B3000D8E74FF0FF30D5E760080020B80C002030
:103B400038B504464FF01003EFF3118583F3128864
:103B5000BFF36F8F01F096FE48B10022C26601F0FC
:103B600032FE2946BDE83840064800F0DBB9D4E90A
:103B700002329A4218BF0133A36085F31188BFF364
:103B80006F8F38BDB80C002013B54FF01004EFF361
:103B9000118184F31288BFF36F8F846844B1013CB4
:103BA000846081F31188BFF36F8F002002B010BDD5
:103BB00052EA030406D181F31188BFF36F8F6FF0CF
:103BC0000F00F3E7CDE900230246024800F046F972
:103BD000ECE700BFB80C0020C3897F2B12D80A4B3A
:103BE0001B6863B1094B90F90E201B689A4209DBF0
:103BF000437BDB0606D1064BC31A18BF012303F033
:103C0000010070470023FAE788080020840800209C
:103C1000900500200122044BC01A044BC0105843E9
:103C2000034B1A54704700BF70060020ABAAAAAA23
:103C3000B80C002070B50E4B0E4C1E7C182303FBF5
:103C400006440546204601F04FFE00220A4B284656
:103C50009A55FFF7C1FF48B1084B2046BDE87040B8
:103C60001A680749013AD31700F056BB70BD00BF70
:103C70006008002070060020B80C00208808002092
:103C8000153C000838B50D4D2B4653F8184F9C4293
:103C900000D004B9EC68AB6838B95A7BD20604D1BD
:103CA000A26912B9DA897F2A05D89C4202D020463F
:103CB000FFF7C0FF23466B6138BD00BF60080020DE
:103CC00070B590F90D200146002A437B04DA03F019
:103CD0007F03437301F03DFD154A4B7B104663F0B3
:103CE0007F034B7350F8183FD469834208BF002309
:103CF00023B9C1E900042160D1610CE091F90E50B3
:103D000093F90E60B5420ED0AE420CDD5868C1E9A1
:103D10000030016059609068BDE87040431A584215
:103D20005841FFF7AFBF9C42E3D01B68E0E700BFFC
:103D30006008002070B490F90D30427B002B29DB25
:103D4000D30627D183692BBB134962F07F024273EC
:103D50000A4652F8184F944218BF2346CC6923B93B
:103D6000C0E900242060C8610CE090F90E5093F97E
:103D70000E60B5420AD0AE4208DD5A68C0E9003292
:103D800010605860002070BCFFF77CBFA342E7D0F2
:103D90001B68E4E770BC70476008002008B590F924
:103DA0000D200146002A437B04DA03F07F034373AE
:103DB00001F0CFFC044B9868431A58425841BDE8C3
:103DC0000840FFF75FBF00BF6008002070B51546D0
:103DD0001C46064601F0CFFCB4F1FF3F08BFB5F129
:103DE000FF3F08D02A46234606F118000249BDE8E5
:103DF000704000F091BA70BD4F58000838B54FF0D0
:103E00001003EFF3118583F31288BFF36F8F104B0C
:103E1000104A9C681068A04206D1FFF70BFF85F39B
:103E20001188BFF36F8F38BD00211B7C11600A4AD7
:103E3000D35C002BF3D02046FFF7CEFE0028EED057
:103E4000637BDB0602D12046FFF73AFF2046E4E71A
:103E50006008002080080020B80C002070B50C48D5
:103E60000C4D86680C462E601146DDE904234FF0A8
:103E70001006EFF3118586F31288BFF36F8F806809
:103E8000FFF7A4FF2046BDE87040FEF735B900BF3C
:103E90006008002080080020F8B504464FF01003A9
:103EA000EFF3118683F31288BFF36F8F437B49B220
:103EB000DA0619D18569BDB903F07F03437301F0B8
:103EC00048FC437B164A63F07F03437313468173B8
:103ED00053F8180F984218BF0546D0695DB9C4E978
:103EE00000300460D46111E00020A17386F31188D2
:103EF000BFF36F8FF8BD95F90E70B9420BD08F42AA
:103F000009DD6B68C4E900531C606C600120FFF799
:103F1000B9FE0120EAE7A842E1D02D68DEE700BF44
:103F20006008002049B9EFF3058030B9054B5A69A4
:103F30009B689A4201D0FEF7DFB881F31188BFF386
:103F40006F8F70476008002010B54FF01002EFF33C
:103F5000118482F31288BFF36F8F427B510704D420
:103F600084F31188BFF36F8F10BD22F004024273F7
:103F7000FFF7E0FE2146BDE810400148FFF7D2BF41
:103F8000B90C002070B50446183001F0ADFC4FF0BC
:103F90001003EFF3118683F31288BFF36F8F94F948
:103FA0000D20637B002A05DA03F07F03204663734C
:103FB00001F0CFFB0B4D637BA86843F010036373E4
:103FC000031B58425841FFF75DFE86F31188BFF38B
:103FD0006F8FAB68A34203D1BDE8704001F07ABC9B
:103FE00070BD00BF600800204FF01003EFF3118197
:103FF00083F31288BFF36F8F044B9A68D37B013B26
:10400000D37381F31188BFF36F8F7047600800206E
:1040100010B54FF01003EFF3118483F31288BFF350
:104020006F8F084B00209A68D37B0133D373FFF75F
:1040300029FE84F31188BFF36F8FBDE8104001F0B3
:1040400049BC00BF60080020024B03F11802C3E91D
:104050000622704760080020F8B54FF01003EFF318
:10406000118583F31288BFF36F8F19498868437BEA
:1040700003F07F03437301F06CFB08468B685A7BA7
:1040800062F07F025A7350F8182FCC69824208BF41
:10409000002222B9C3E900042360CB610CE093F94C
:1040A0000E6092F90E70BE420ED0B7420CDD516820
:1040B000C3E900210B6053600120FFF7E3FD2846B0
:1040C000BDE8F840FEF718B8A242E3D01268E0E776
:1040D0006008002050EA01032DE9F04105460E4634
:1040E00003D1FFF7B9FF00202CE0831C71F1FF33EF
:1040F0002ADB01F00FFC2C184FF01003EFF31188AE
:1041000083F31288BFF36F8F114F124BB86818609A
:10411000FFF744FEB86810492A463346183000F0CD
:10412000FBF8BA684046537B43F010035373FDF726
:10413000E3FF01F0EFFB201A63EB0303012873F1A7
:104140000003D0DBBDE8F0816FF00104241AD3E74F
:1041500060080020800800204F580008B1F1FF3FA0
:1041600008BFB0F1FF3F08B506D1074B9868FFF7CD
:1041700009FF4FF0FF3008BDFFF7ACFF0A22002314
:10418000C117FBF7D5FFF6E760080020014B9868E0
:10419000704700BF600800202DE9F04104464FF051
:1041A0001003EFF3118683F31288BFF36F8F037B45
:1041B000D9070BD586F31188BFF36F8F404080F38A
:1041C00011884FF0040002DFBDE8F081437B1A073D
:1041D00004D586F31188BFF36F8FF5E723F0200233
:1041E00042F00801D20920D14173A36813B12046DF
:1041F00001F0B7FA04F1180001F076FB4FF0000867
:1042000004F15807A56DBD4200D0B5B90120FFF7F4
:1042100039FD104B9B68A342DBD1EFF30583002BE4
:10422000D7D13046FDF768FFD3E703F05F0343F0D3
:104230000803437301F08DFAD7E7284601F091FA9D
:1042400005F1180001F050FB2846C5F86C80FFF717
:1042500071FDD7E76008002008B50648064A0749FF
:10426000121A01F049FABDE80840054A0549064816
:1042700001F042BA00000020D0000020886700084A
:10428000000000008867000800000020034B1B6846
:104290000BB9FFF70DB80020704700BF8C08002055
:1042A00010B50E4B1C689C4204D1FFF7EFFF6FF076
:1042B000004010BDFFF7EAFF002CF8D0D4E904322B
:1042C0001B1A62EBE072B3F1004F72F10001EEDAFB
:1042D000002AACBF18460020EBE700BF44000020D6
:1042E00030B570B10B4B5B6898420AD0036843B19C
:1042F000D3E90421D0E90445121941EB0501C3E9D2
:104300000421D0E9003213605A600023C0E9003371
:1043100030BD00BF44000020B3F1FF3F08BFB2F141
:10432000FF3FF8B504461D4616465CD081604FF04D
:104330001003EFF3118783F31288BFF36F8F0132FD
:1043400075F1FF3324DA6FF001032C49D1E9002025
:104350009B1A4FF0FF3262EB00009E1B60EB0500E2
:10436000012E70F1000301DA01260020C4E9046087
:10437000234ED6F800C07568B44508BF4FF0000C56
:10438000BCF1000F0DD1C4E900652C6074601CE025
:10439000FFF77CFF013645F10005361845EBE0706C
:1043A000E4E7DCE90420D4E90431934271EB000E28
:1043B0001ADAD21ADCF8043060EB0100CCE90420F0
:1043C000C4E900C31C60CCF804403368B34206D093
:1043D0009C4204D1FFF764FF0021FEF7EFFE87F354
:1043E0001188BFF36F8FF8BD9B1A61EB0001AC45DC
:1043F000C4E90431C7D0DCF800C0C1E7880600205A
:10440000440000202DE9F84F4FF01003EFF3118C1A
:1044100083F31288BFF36F8FDFF8B0A0DFF8B0909E
:104420000024C9F80000DAF800000025504508BF54
:104430000020284FE046D7E90021D9F8003080B3AA
:10444000D0E9046C4FEAE37EB3427EEB0C0B05DA55
:10445000F61A6CEB0E04C0E9046422E0B21841EBDA
:10446000E671C0E90445C7E90021FFF739FF88F389
:104470001188BFF36F8F836898474FF01003EFF3F5
:10448000118883F31288BFF36F8FD9F80030DAF800
:1044900000009B1B5045C446C9F80030CAD1D7E97B
:1044A000002100249A1841EBE373C7E90023C9F8FF
:1044B0000040FFF7F5FE2146FEF780FE88F31188E5
:1044C000BFF36F8FBDE8F84FFFF798BC44000020A2
:1044D0008C0800208806002010B54FF01003EFF381
:1044E000118483F31288BFF36F8FFFF7CFFE03466B
:1044F000054AD2E90001181841EBE37184F31188F1
:10450000BFF36F8F10BD00BF88060020F8B50446CA
:104510004FF01003EFF3118783F31288BFF36F8F0F
:10452000026822B187F31188BFF36F8FF8BDD0E91D
:104530000A36581C46F10001022871F1000127D308
:10454000012B76F10001BCBF012316465D1E46F12A
:10455000FF3601F0E3F9013041F10001401946EB6B
:104560000101012871F100013ADB01F0D7F90130B6
:1045700041F100016FF00102401946EB01034FF0D9
:10458000FF31121A61EB030320461849FFF7C4FEFE
:10459000236B01332363236A73B187F31188BFF35D
:1045A0006F8F2046236A98474FF01003EFF311876F
:1045B00083F31288BFF36F8F54F8185FA542B1D010
:1045C000002DAFD0284601F00EF90023EB6687F3EB
:1045D0001188BFF36F8F2846BDE8F84001F0F3B8AB
:1045E0006FF001024FF0FF33CEE700BF0D4500082A
:1045F000B3F1FF3F08BFB2F1FF3F2DE9F047DDE91E
:10460000086705461C46914698461CD0531C74F119
:10461000FF3309DB012A74F10003BCBF012200242F
:1046200012F1FF3944F1FF38284601F05DF900230B
:10463000C5E90A672B634A4643462846BDE8F0476A
:104640000249FFF769BEBDE8F08700BF0D450008CD
:10465000014800F06FB800BF6367000870472DE99C
:10466000F04706460D46174698462BB34FF0000A12
:1046700098F8004093F80190DB78A40004EB430421
:1046800098F802301C444444CA4509D339463046A0
:10469000AC46D8F8042008F10803BDE8F0476047AD
:1046A00014F8013B0AF1010A204648F8234000F0C3
:1046B000DEFB01300444E7E76FF01500BDE8F0874A
:1046C00070B5002502462846144614F8013B0BB984
:1046D000184609E098B18D4207D1702B04D0A3F1A0
:1046E00040023A2A0BD8002070BDA3F140063A2EB2
:1046F00005D853780135941C002BE9D00020252BD8
:10470000224608BF80F00100DEE70020704730B588
:104710008A680C68551C14B14B68934201DC8D60AB
:1047200030BD013B934208BF00228D600CBFE254B4
:10473000A054F5E70FB407B504A951F8040B019193
:1047400000F0F7FA03B05DF804EB04B070470CB466
:1047500007B504AB53F8042B0193FCF72BFA03B015
:104760005DF804EB02B07047044608B508461146F0
:104770001A46A047FFF70AFDFEF73EF82DE9F84F6D
:104780009A46D37880466F2B0F461546A3F1410B0E
:1047900029D024D8582B0CBF10260A26DDF82890E3
:1047A0003246002340463946FBF7C2FC092AD4B200
:1047B0001ED83034B045E4B277F1000709F8014D56
:1047C00001D3D14511D82B789B0605D5082E15D1DC
:1047D000AB7843F00803AB704846BDE8F88F03F0B0
:1047E000F703702BD7E70826D8E780460F46D7E7B0
:1047F000BBF1190F94BF37345734DBE7102EEBD1E0
:10480000AB7843F01003E6E72DE9F0410746884610
:1048100015461E461446B44205D30EB1601B08E08F
:104820002378002BFAD0414614F8010BB847002832
:10483000F1DABDE8F08110B50369024613F0080013
:1048400009D11368D4689C429BBF0120126AE31A05
:10485000D31A0B6010BD00231846FAE713B501A95F
:104860000446FFF7E8FF20B1019BE268013B1344D7
:104870000193206A019BC01A013802B010BD10B527
:10488000044650182269236AD20702D5013B18401A
:1048900010BD984228BFC01AFAE710B504460A4670
:1048A000C168FFF7ECFF2369E06023F00803236190
:1048B00010BD38B50D46C2698B00016843F0020394
:1048C000044642F8213001682A46FFF7D8FFE36822
:1048D0006168984208BF2369206008BF43F008035D
:1048E0002A46204608BF2361FFF7C9FF606038BD34
:1048F0002DE9F74FC768C6699B4616F8273004466E
:1049000003F00303022B884691464FF0000306EBA9
:10491000870A09D01360CBF800302369990710D4B7
:10492000002003B0BDE8F08F56F827101360890807
:10493000CBF80030F1D0FFF7B0FFE368A3600120AF
:10494000EFE7A3695046984716F827300546DA077F
:10495000E6D513F002031DD0B8F1000F03D0414695
:104960002046FFF7A6FF61682A462046FFF787FF2B
:10497000D4E902319942606004D12A462046FFF70B
:104980007EFFA060A3682360E360236943F008030F
:104990002361D4E7014620460193FFF77EFFE268DA
:1049A000A260B8F1000F04D02168E269019B42F8CF
:1049B000213005EB0802CBF8002021682046FFF7E4
:1049C0005EFF2369206043F00803236116F8273057
:1049D0006FF3000306F82730C9F800A0AFE770B501
:1049E00004461546FFF74BFF2368834205D1236930
:1049F000216023F00803236170BDE269AB0043F03E
:104A0000020342F8213061682A462046FFF737FF4B
:104A10006060F1E738B5036904465B0706D5456A6F
:104A2000FFF71CFF85422CBF6562606238BD38B558
:104A30000D4604461C22002100F02BFA0022EB68F0
:104A4000A361AB6863612B68E3616B686262236298
:104A50002A6923B1591E194208BF42F0010222619E
:104A6000012204F128000021BDE8384000F065BEB5
:104A70002DE9F04F002587B00093036A04468B426E
:104A80000E469246A946039505953AD34FF010037A
:104A9000EFF3118B83F31288BFF36F8F059AD8461B
:104AA0002AB129462046FFF79AFF0023059304A95F
:104AB0002046FFF7C0FE04990746B1422AD3226878
:104AC000E369204613F8221003EB820921F0030169
:104AD00003F8221021683246FFF7D1FEE368206018
:104AE000984212D0002788F31188BFF36F8F039983
:104AF00029B162690AB12046904700230393002F31
:104B0000C4D1484607B0BDE8F08F236943F00803DD
:104B10002361E7E718B12046FFF7CBFEE3E7009BF0
:104B20005AEA03031AD0019100F0E8FD0199A8B9EF
:104B30008BF31188BFF36F8F5246009B04F128005E
:104B4000FFF722F84FF01003EFF3118883F3128878
:104B5000BFF36F8FB0FA80F77F09C4E7204605AB3B
:104B600003AA2568FFF7C4FE0746BCE770B50446F4
:104B7000836908460D46984702464FF01003EFF34D
:104B8000118683F31288BFF36F8F2B78204643F092
:104B900001032B706168FFF772FE60602046FFF72B
:104BA00039FF86F31188BFF36F8F70BDF8B50446E7
:104BB0004FF01003EFF3118683F31288BFF36F8F6A
:104BC000236913F0080FA36802D16268934200D9E9
:104BD000226AD21AE1692AB986F31188BFF36F8F6E
:104BE000002733E011F8232001EB830712F00300C4
:104BF000F2D0022803D151F82350AD0805D1D007D7
:104C000012D43846A36998470546A1682A4620462B
:104C1000FFF735FE2946A0602046FFF73EFE86F3EB
:104C20001188BFF36F8FC3E742F0020201F823201F
:104C3000A3693846A5689847294602462046FFF7EB
:104C40001EFEA06086F31188BFF36F8F3846F8BD53
:104C5000F8B50446836908460D46984706464FF066
:104C60001003EFF3118783F31288BFF36F8F2B7854
:104C70006FF300032B7023699B0705D5E268E36996
:104C800003EB82039D421AD12B786FF341032B7003
:104C9000D4E90231994204D132462046FFF7EFFDB4
:104CA000A06031462046FFF7F8FD87F31188BFF377
:104CB0006F8F04F12800BDE8F840FEF741BF2B6874
:104CC00060F39F032B60F0E702698368120702D448
:104CD00042689A4200D2026AD31A181E18BF0120F5
:104CE0007047704703785B075FBF03684288C3F370
:104CF0004A2303EB12105DBF173020F00700800835
:104D000000207047002070470346BFF35B8F53E8D5
:104D1000000F421C43E800210029F8D1BFF35B8F4C
:104D2000704708B500F0FAFD0A220023FBF700FAED
:104D300008BD1FB50023CDE902011A4619461846E1
:104D4000CDE90033FCF732FE05B05DF804FB01202D
:104D5000FCF7EABB0020704770B5D2E901369B1B17
:104D60008B420C4615460AD313680A460146981929
:104D700000F084F82046AB682344AB6070BD6FF050
:104D80001B00FBE770B50E4615461946044618B9D8
:104D9000BDE87040FCF7C8BB33B1C2F34A23103002
:104DA000120D184400F06AF8C4E900562046BDE828
:104DB0007040FCF743BDF8B506460D4614461F4645
:104DC000214628463A46B047241A0544F8D1F8BD92
:104DD00013B500240094FBF703FF02B010BD10B51B
:104DE000426804460CCA81680068FFF7E4FF0022AD
:104DF00063681A6010BD38B54B6805461A68CB6801
:104E00000C469A4202D10846FFF7E9FF6368BFF3F8
:104E10005B8F53E8002F511C43E800100028F8D1A5
:104E2000BFF35B8FA36800209D5438BD0A2838B5B6
:104E300004460D4602D10D20FFF7DDFF294620462E
:104E4000FFF7D9FF002038BD704701460068FDF725
:104E5000AFB800210120FDF7ABB808B5FDF730F978
:104E6000BDE80840FDF7D8B90023FCF71BBD034699
:104E700000201A5C02B970470130FAE710B5431EF2
:104E80000A44914200D110BD11F8014B03F8014FC3
:104E9000F7E70346C9B20244934200D1704703F8D2
:104EA000011BF9E74FF0FF307047034600201A5C02
:104EB0000AB1884200D170470130F8E708B50622F0
:104EC00001210020FDF7DAFC002206201146FDF743
:104ED000E1F8012107220846FDF7D0FC0022072057
:104EE0001146FDF7D7F8082201210220FDF7C6FC84
:104EF000002208201146FDF7CDF8092201210320E8
:104F0000FDF7BCFC002209201146FDF7C3F80A2278
:104F100001210420FDF7B2FC00220A201146FDF712
:104F2000B9F8052117220846FDF7A8FC0022172032
:104F30001146FDF7AFF8282206210A20FDF79EFC56
:104F4000002228201146FDF7A5F8002008BD0B68B7
:104F5000A3F11402082A9FBF03F1804303F5043331
:104F60001A6849689BBF00200A436FF085001A60E9
:104F700070470B68A3F11402082A9FBF03F1804316
:104F800003F504331A6849689BBF00208A436FF019
:104F900085001A6070470868A0F11403082B0AD82E
:104FA00000F1804000F5043002684B68934314BF61
:104FB000012002207047022803D005280CBF0220E0
:104FC0000120704710B50B68022B01D0052B21D1B1
:104FD0004A68FF2A1CD0D3B203F1804303F504339F
:104FE0001868C2F34234C2F3042204FA02F220EA3F
:104FF00002021A604968CBB203F1804303F504331F
:105000001868C1F30242C1F304218A4002431A60C6
:10501000002010BD6FF08500FBE77047436800205B
:105020005B689B680B60704743685B68D868424068
:105030000A404240DA6000207047436800205B6805
:1050400019617047436800205B6859617047436885
:1050500000205A68D3684B40D360704710B503698D
:105060009868F8B1884219D1DC680868A142986054
:1050700000D1D860002008602AB19A680A60DA6816
:10508000996002B9D960002010E0814206D1086819
:105090002060D8688142EDD1DC60EBE7044600680F
:1050A0000028F2D1002AE8D16FF0150010BD91FA66
:1050B000A1F3B3FA83F370B50D0E0F2691FAA1F1A7
:1050C000B1FA81F144599B0006FA03F3890024EAFE
:1050D00003048A402243425170BD91FAA1F3B3FA0E
:1050E00083F370B50D0E032691FAA1F1B1FA81F1A7
:1050F00044599B0006FA03F3890024EA03048A401A
:105100002243425170BD91FAA1F3B3FA83F370B513
:105110000D0E042691FAA1F1B1FA81F144599B00D8
:1051200006FA03F3890024EA03048A402243425129
:1051300070BD70B50B46896821B101255E680C68A9
:10514000854001B970BD8A682A4002D030464B685C
:1051500098471CB1236821461C46F2E72346FAE72C
:1051600070B501241546072904FA01F2C8BF01F001
:1051700007014FEA0223C5BF8C401C4342EA0304E7
:1051800044F08064EA07406822D415F0060204D196
:105190002146BDE87040FFF78ABF022A01D10422F0
:1051A000F6E705F4C075802D6FEA14264FEA142245
:1051B0000BD192FAA2F20123B2FA82F2C1689340B3
:1051C00031400B430822C360E2E7C3683340F9E78C
:1051D0006B0654BF012209222146FFF768FF15F034
:1051E000200218BF0422214605F01805FFF78BFFA7
:1051F000082D05D102222146BDE87040FFF76DBFA2
:105200000DB90122F7E70322F5E713469A0310B51B
:1052100018D59C070FD55A072DD52122DC060CD5B1
:1052200042F0840213F4002F44681BD00123646809
:105230008B40236111E00122F0E79C06F2D542F495
:105240008272EFE713F4803207D0DC0611D413F03A
:10525000200F14BF4FF4827202224068FFF780FFD4
:10526000002010BD5B03F8D5012364688B406361A7
:10527000F3E78422F1E76FF08500F2E7F8B51F4607
:10528000044640680E461546FFF76AFF032F08D113
:10529000012303FA06F66368AA055B684CBF1E612A
:1052A0005E610020F8BD30B50368136005790468BD
:1052B00004EBC504A34202D36FF0010030BD5C795A
:1052C0008C4201D00833F0E70020F7E74368C1F3D0
:1052D0004B101B6801F01F01C05801238B40034293
:1052E00014BF0123002300201370704710B54368DA
:1052F000C1F34B101A680123845801F01F018B4041
:1053000023438350002010BD012210B54368C1F330
:105310004B14186801F01F0123588A4023EA020346
:105320002350002010BD38B504460D46FFF7DEFFC0
:1053300029462046FFF7E8FF002038BD036882B009
:105340000193019B43680193019B02B0704708B52C
:105350004368186803681A0701D5FFF7EFFF036871
:105360009B0649BF43684FF0FF3000200B7008BD1B
:1053700010B54068026813681B06FCD54FF0100298
:10538000EFF3118382F31288BFF36F8F0268146802
:10539000240604D483F31188BFF36F8FEAE75160CA
:1053A00083F31188BFF36F8F10BD08B541680B6898
:1053B0001A681868C2F3C002C007186848BF42F0F4
:1053C00002028007186848BF42F0040240071868CC
:1053D00048BF42F02002C00542BF6FF4807042F027
:1053E00008021860D00702D50868FFF7A7FF9307E7
:1053F00002D50868FFF7A2FF500702D50868FFF73B
:105400009DFF930602D50868FFF798FF104608BD78
:10541000F0B546683368186810F0800010D04FF07F
:105420001003EFF3118783F31288BFF36F8F00230C
:10543000DCB2A242204604DC87F31188BFF36F8FF1
:10544000F0BD35680133D5F800C01CF0800FF3D0F3
:10545000085D6860ECE770B500244568E0B2824200
:1054600003DD2B681E68B60600D470BD5B680B5464
:10547000286803681B0701D5FFF760FF0134EDE7DB
:1054800043681A68D36843F04003D36070474368A9
:105490001A68D36823F04003D360704743681B68E1
:1054A000186810F080001CBFD868C0F380107047E7
:1054B00043681B681868C0F38010704743681A6817
:1054C000D36843F02003D360704743681A68D368F9
:1054D00023F02003D360704743681B681868C0F34B
:1054E0004010704743681B681A68910602D5DA6855
:1054F000920607D4186810F0400004D0D868C0F3B2
:105500008010704701207047012070470369C3E98C
:1055100004127047026913690BB15169184770474B
:10552000002208B525201146FCF7B4FDBDE808406F
:105530002520FCF7A1BD03691B680B6043681B684D
:10554000DB6803F4C063B3F5806F2FD0A3F5C06CA4
:10555000DCF1000343EB0C030B7143681B681B6910
:1055600003F44053B3F5805F22D0B3F5405F21D000
:10557000002B0CBF012303234B7143681B68DA68BF
:10558000DB68D20403F4C06316D5002B14BF0323D9
:1055900004238B71436800201B685B6903F440732C
:1055A000A3F5407253425341CB7170470223D3E7B6
:1055B0000023E1E70223DFE7002B14BF02230323CC
:1055C000E7E737B50369456858680C46836869683A
:1055D000DB681BB9FDF71EFC03B030BD01AA98477C
:1055E0000028F7DB1922019BA40053436422B3FB7C
:1055F000F4F1B1FBF2F002FB10131B013233B3FBE9
:10560000F2F32D6803EB00139BB2AB60E4E7036990
:10561000C26893429CBF81685B18013B981A70472F
:105620002DE9F0410546D0E902844068A8EB040664
:10563000964220440F46144404D9FFF71FFCEC6047
:10564000BDE8F0813246A4EB0804FFF717FC2246C0
:105650006868B919F1E72DE9F84306468946174607
:105660004FF00008C5683369B4689D4228BF1B1914
:10567000641BBC4228BF3C46013B5B1B9C4228BFCD
:105680001C467068494628442246FFF7F7FBB3687A
:105690002544AB4208BF00253F1BA044A144F56050
:1056A000E1D14046BDE8F883FDF796BE08B5FFF7A7
:1056B000FBFF002008BD00207047034601211B7935
:1056C0000068994083685B691847704740B1C368B8
:1056D000587810F001001EBF1878B0FA80F0400929
:1056E00070474FF01002EFF3118382F31288BFF37B
:1056F0006F8FFEE7FFF7CDBBFFF7C0BBEFF3058071
:10570000003818BF012070476FF057007047002025
:10571000704708B54FF01002EFF3118382F312883F
:10572000BFF36F8FFCF736FCF4E790F90E308B4235
:1057300001D0FEF7B1BB002070473AB18A4205D3D1
:10574000C0E90212C0E90000002070476FF01500A8
:105750007047D0E9003213605A600023C0E900337B
:10576000704708B5FFF7F5FF437B23F0020343734F
:105770000023836008BD38B504460D46FEF70EFBD6
:10578000637B43F002036373E5B1A5602B689D4220
:1057900009D16B68C4E900531C606C6012E06A6850
:1057A0009342F6D01B68002BF3D094F90E2093F9A6
:1057B0000E108A42F3D09142F1DD5A68C4E90032FA
:1057C00014605C6038BD10B54FF01003EFF3118426
:1057D00083F31288BFF36F8FFEF7ACFA84F311885E
:1057E000BFF36F8F10BD08B54FF01002EFF31181BA
:1057F00082F31288BFF36F8F83680BB1FFF7B1FF9D
:1058000081F31188BFF36F8F08BD38B504464FF0A0
:105810001003EFF3118583F31288BFF36F8F437B7F
:1058200013F0280F0BD183680BB1FFF79AFF637B4E
:1058300051B903F0FB0320466373FEF77BFA85F34F
:105840001188BFF36F8F38BD03F0EB03F3E701213D
:105850001838FFF7DABF08B503464FF01002EFF330
:10586000118182F31288BFF36F8F0068834207D0E3
:1058700008B1FFF776FF81F31188BFF36F8F08BD82
:105880000020F8E738B54FF01003EFF3118583F3EC
:105890001288BFF36F8F0468A0420DD034B1204648
:1058A000FFF75FFF04F1180000F01EF885F3118880
:1058B000BFF36F8F204638BD0024F7E7034620B9B9
:1058C000EFF305820AB9FCF717BC83F31188BFF325
:1058D0006F8F70474FF01003EFF3118083F312883E
:1058E000BFF36F8FFFF7EABF10B54FF01002EFF371
:1058F000118482F31288BFF36F8F03683BB1FEF708
:10590000EFFC002084F31188BFF36F8F10BD6FF0A0
:105910001500F7E708B5FEF7DFFD08BDFEF7DCBDB3
:105920000023C0E9081200F11802C0E90622C0E90C
:10593000003303634363704710B50446FFF7D4FF99
:10594000B0B9636A0BB12046984704F11800FFF71D
:1059500082FF68B1FFF737FF4FF01003EFF31180BC
:1059600083F31288BFF36F8FBDE81040FFF7A6BF27
:0459700010BD000066
:08597400F0A7FF7F0100000015
:10597C004513000800000000B9290008045A00086B
:10598C005913000800000000AD560008000000008C
:10599C0000000000185A0008792B0008685A00080B
:1059AC00BD4E00082C5A0008792B0008905A0008AC
:1059BC00792B00087C5A0008792B0008545A0008EF
:1059CC00792B0008405A0008992F0008A45A0008A7
:1059DC00BD2A000800000000292B00080000000070
:1059EC003531000800000000ED1300080000000035
:0859FC00B7560008B85A000874
:105A040010650008000000000C0000205E0000206B
:105A14000000000063650008645E0008685E00081A
:105A24006A00002000000000F2640008000000008A
:105A3400000000005C000020DC0600201D6500085A
:105A4400B05D0008145E0008600000205C070020C0
:105A54002B650008C45D0008145E00086200002085
:105A64006C07002039650008D85D0008145E000842
:105A7400640000207C07002047650008EC5D0008F6
:105A8400145E0008660000208C070020556500089D
:105A9400005E0008145E0008680000209C070020D7
:105AA4002E660008785E0008C45E00086C000020C2
:105AB400280000208466000800000000105F000831
:085AC4006E000020000000004C
